:020000040800F2
:100000000000022079250008692300086B230008FE
:100010006D2300086F230008712300080000000012
:100020000000000000000000000000007323000832
:1000300075230008000000007723000879230008DA
:10004000C9250008C9250008C9250008C9250008D8
:10005000C9250008C92500087D230008C925000816
:10006000C9250008C9250008C9250008C9250008B8
:10007000C9250008C9250008C9250008C9250008A8
:10008000C9250008C9250008C9250008000000008E
:10009000000000000000000000000000C92500086A
:1000A000C9250008C9250008C9250008C925000878
:1000B000C9250008C9250008C9250008C925000868
:1000C000C9250008C9250008C9250008C925000858
:1000D000C9250008C9250008C9250008000000003E
:1000E000C9250008C9250008C9250008000000002E
:1000F000000000000000000000000000C92500080A
:1001000000000000C9250008C9250008C92500080D
:1001100000000000000000000000000000000000DF
:10012000C9250008C9250008C9250008C9250008F7
:10013000C9250008000000000000000000000000C9
:10014000000000000000000000000000C9250008B9
:10015000C9250008C9250008C9250008C9250008C7
:10016000C9250008C92500080000000000000000A3
:10017000000000000000000000000000000000007F
:1001800000000000C9250008000000000000000079
:08019000C9250008C92500087B
:1001980010B5054C237833B9044B13B10448AFF3B9
:1001A80000800123237010BD1C0000200000000007
:1001B8003C26000808B5034B1BB103490348AFF3BD
:1001C800008008BD00000000200000203C26000838
:1001D80053B94AB9002908BF00281CBF4FF0FF31A6
:1001E8004FF0FF3000F07AB9ADF1080C6DE904CE9C
:1001F80000F006F8DDF804E0DDE9022304B07047FA
:100208002DE9F0478C460D460446089E002B51D137
:100218008A4217466DD9B2FA82FEBEF1000F0BD0A2
:10022800CEF1200C01FA0EF520FA0CFC02FA0EF7BA
:100238004CEA050C00FA0EF44FEA174A250CBCFBF1
:10024800FAF81FFA87F90AFB18CC45EA0C4508FBAF
:1002580009F3AB420AD9ED1908F1FF3280F0238186
:10026800AB4240F22081A8F102083D44ED1AA4B245
:10027800B5FBFAF00AFB105544EA054400FB09F9FE
:10028800A14509D9E41900F1FF3380F00A81A1459D
:1002980040F2078102383C44A4EB090440EA0840D4
:1002A8000021002E61D024FA0EF40023346073601C
:1002B800BDE8F0878B4207D9002E54D0002186E88C
:1002C80021000846BDE8F087B3FA83F1002940F021
:1002D8008E80AB4202D3824200F2FA80841A65EB28
:1002E80003050120AC46002E3FD086E81010BDE87B
:1002F800F08712B90127B7FBF2F7B7FA87FEBEF10C
:10030800000F34D1EB1B3A0C1FFA87FC0121B3FB19
:10031800F2F8250C02FB183345EA03450CFB08F3F9
:10032800AB4207D9ED1908F1FF3002D2AB4200F217
:10033800D1808046ED1AA3B2B5FBF2F002FB10554E
:1003480043EA05440CFB00FCA44507D9E41900F175
:10035800FF3302D2A44500F2B8801846A4EB0C047F
:1003680040EA08409DE731463046BDE8F087CEF1C7
:10037800200405FA0EF307FA0EF720FA04F83A0CEF
:1003880025FA04F448EA0308B4FBF2F14FEA1845E9
:1003980002FB11441FFA87FC45EA044501FB0CF3F4
:1003A800AB4200FA0EF409D9ED1901F1FF3080F0E3
:1003B8008A80AB4240F2878002393D44EB1A1FFA2B
:1003C80088F5B3FBF2F002FB103345EA034500FB66
:1003D8000CF3AB4207D9ED1900F1FF386FD2AB42ED
:1003E8006DD902383D44EB1A40EA01418FE7C1F16B
:1003F800200722FA07F88B4005FA01F448EA0303BC
:1004080020FA07FE4FEA134CFD404EEA040EB5FBF6
:10041800FCF94FEA1E440CFB19551FFA83F844EA0D
:10042800054509FB08F4AC4202FA01F200FA01FAA8
:1004380008D9ED1809F1FF3043D2AC4241D9A9F1EE
:1004480002091D442D1B1FFA8EFEB5FBFCF00CFBA8
:1004580010554EEA054400FB08F8A04507D9E418F2
:1004680000F1FF3529D2A04527D902381C4440EABB
:100478000940A4EB0804A0FB02894C45C6464D463A
:1004880015D312D056B1BAEB0E0364EB050404FA87
:1004980007F7CB401F43CC40376074600021BDE8AC
:1004A800F0871846F8E69046E0E6C245EAD2B8EB8F
:1004B800020E69EB03050138E4E72846D7E7404612
:1004C80091E78146BEE7014678E702383C4445E7B4
:1004D800084608E7A8F102083D442BE7704700BF2B
:1004E80038B50E4A0E4B054618784FF47A73B3FBAD
:1004F800F0F31068B0FBF3F000F0AAF8044658B91E
:100508000F2D09D8024629464FF0FF3000F05EF85B
:10051800044B20461D6038BD012038BD180000205E
:10052800000000200400002008B50B4B1A6842F4B4
:1005380000721A601A6842F480621A601A6842F4FB
:1005480080721A60032000F02FF80020FFF7C8FF20
:1005580001F0EAFE002008BD003C0240034A044BBB
:1005680011681B780B441360704700BF20040020FB
:1005780000000020014B1868704700BF20040020CD
:1005880038B50446FFF7F6FF631C1CBF054B1B7804
:10059800054618BFE418FFF7EDFF401B8442FAD860
:1005A80038BD00BF00000020074AD36823F4E06389
:1005B8001B041B0C43F0BF63000243F4003300F438
:1005C800E0600343D360704700ED00E0174B30B59F
:1005D800DC68C4F30224C4F10703251D042B28BFDB
:1005E8000423062D4FF0010505FA03F303F1FF3349
:1005F8008CBF033C00241940A14005FA04F4013CD7
:100608002240002842EA01024FEA0212ADBF00F17F
:10061800604000F00F00064B00F56140B5BFD2B254
:10062800D2B21A5480F8002330BD00BF00ED00E0BC
:1006380014ED00E0002808DB4209012300F01F0048
:1006480003FA00F0014B43F82200704700E100E094
:100658000138B0F1807F0AD2064B074A5860F02172
:1006680082F823100020072298601A607047012042
:10067800704700BF10E000E000ED00E011B94260F3
:10068800084670470120704710B10160002070478C
:1006980001207047036803F01F0201239340044AB6
:1006A80051690B4203D05361436803B1184770473F
:1006B800003C01402DE9F04F85B00B68DFF88C81D4
:1006C800604A01934FF001090023019D09FA03F4E0
:1006D8002540AC4240F0A6804C6824F0100C0CF188
:1006E800FF36012E4FEA430E12D88768032606FA12
:1006F8000EF627EA0607CE6806FA0EF63E4386602F
:100708004768C4F3001627EA05079E403E43466043
:100718000326C76806FA0EF6F64307EA060A8F6844
:1007280007FA0EF747EA0A07BCF1020FC76016D1AD
:100738004FEAD30A00EB8A0A03F0070BDAF82070B5
:100748004FEA8B0B4FF00F0C0CFA0BFC27EA0C0C42
:100758000F6907FA0BF747EA0C07CAF82070076811
:100768003E4004F0030707FA0EFE4EEA060606604E
:10077800E60057D54FF0000BCDF80CB0D8F8447010
:10078800314E47F48047C8F84470D8F8447007F4ED
:1007980080470397039F23F0030707F1804707F576
:1007A8009C3703F0030CD7F808A04FEA8C0C4FF0E5
:1007B8000F0E0EFA0CFEB0422AEA0E0E39D006F5DC
:1007C8008066B04237D006F58066B04235D006F56F
:1007D8008066B04233D006F58066B04214BF072663
:1007E800042606FA0CF646EA0E06BE601668EF43C3
:1007F80014F4803F0CBF3E402E431660566814F434
:10080800003F0CBF3E402E435660966814F4801F8C
:100818000CBF3E402E439660D668A40254BF3E40AB
:100828002E43D6600133102B7FF44FAF05B0BDE8DF
:10083800F08F5E46D5E70126D3E70226D1E70326E7
:10084800CFE700BF003C01400000024000380240F2
:100858002DE9F04F374C00234FF0010A4FF00F08F5
:100868004FF0030B0AFA03FE0EEA0102964553D134
:1008780023F0030505F1804505F59C3503F00307D2
:10088800AE68BF0008FA07F906EA090C2A4EB0421A
:1008980047D006F58066B04245D006F58066B0427E
:1008A80043D006F58066B04241D006F58066B04276
:1008B8000CBF04260726BE40B44510D12668D24393
:1008C80016402660666816406660A6681640A660F0
:1008D800E6683240E260AA6822EA0902AA605A0081
:1008E80005680BFA02F2D243DE08154000EB8606D3
:1008F800056003F00705376AAD0008FA05F527EA31
:1009080005053562C5681540C560456825EA0E05C8
:10091800456085682A4082600133102BA2D1BDE86A
:10092800F08F0026C7E70126C5E70226C3E703269E
:10093800C1E700BF003C01400000024003691942C2
:1009480014BF0120002070470AB181617047090473
:10095800FBE700002DE9F341044608B901203FE018
:100968000368DD0710D4236898075AD423681A0748
:1009780000F19C8023685B0700F1BA80A069002819
:1009880040F01B8100202BE0A44B9A6802F00C0277
:10099800042A07D09A6802F00C02082A0AD15B6878
:1009A800590207D59D4B1B689A03DCD56368002B59
:1009B800D9D1D3E76368994DB3F5803F13D12B683C
:1009C80043F480332B60FFF7D5FD944D06462B6822
:1009D8009B03C8D4FFF7CEFD801B6428F7D90320FA
:1009E80002B0BDE8F081B3F5A02F04D12B6843F421
:1009F80080232B60E3E72A6822F480322A602A6881
:100A080022F480222A60002BDDD1FFF7B3FD0646D1
:100A18002B689F03A7D5FFF7ADFD801B6428F7D986
:100A2800DDE77E4B9A6812F00C0F07D09A6802F047
:100A38000C02082A11D15B685E020ED4774B1A6843
:100A4800950702D5E268012A88D11A68216922F03F
:100A5800F80242EAC1021A6088E7E268704BB2B154
:100A680001221A60FFF786FD6C4D06462B68980731
:100A780007D52B68226923F0F80343EAC2032B60E9
:100A880074E7FFF777FD801B0228EFD9A7E71A6004
:100A9800FFF770FD614D06462B6899077FF566AF35
:100AA800FFF768FD801B0228F6D998E762695D4B5D
:100AB8007AB101221A60FFF75DFD584D06466B6F4B
:100AC8009F073FF557AFFFF755FD801B0228F6D962
:100AD80085E71A60FFF74EFD504D06466B6F980785
:100AE8007FF548AFFFF746FD801B0228F6D976E769
:100AF8004A4B1A6C12F0805228D101921A6C42F0BB
:100B080080521A641B6C03F080530193019B0126E9
:100B1800454D2B68D9051BD5A368404D012B27D11E
:100B28002B6F43F001032B67FFF724FD3B4D07466E
:100B380041F288382B6F9B0739D5002E3FF41EAF42
:100B4800364A136C23F08053136417E70026DFE757
:100B58002B6843F480732B60FFF70CFD07462B6866
:100B6800DA05D9D4FFF706FDC01B0228F7D936E706
:100B7800052B04D12B6F43F004032B67D0E72A6FB2
:100B880022F001022A672A6F22F004022A67002B4A
:100B9800CAD1FFF7EFFC41F2883807462B6F980758
:100BA800CBD5FFF7E7FCC01B4045F7D917E7FFF7A0
:100BB800E1FCC01B4045BDD911E7184DAB6803F0F7
:100BC8000C03082B47D0194E00230228336035D177
:100BD800FFF7D0FC07462B68990129D4226AE369FC
:100BE8001343626A43EA8213E26A43EA0263A26A2F
:100BF8000A4C5208013A43EA02436B60012333600E
:100C0800FFF7B8FC054623689A013FF5BBAEFFF72E
:100C1800B1FC401B0228F6D9E1E600BF00380240CB
:100C280000004742800E4742007000406000474283
:100C3800FFF7A0FCC01B0228CDD9D0E6FFF79AFC2D
:100C480004462B689B017FF59DAEFFF793FC001BC4
:100C58000228F6D9C3E601283FF4C2AEA868E369C2
:100C680000F480029A427FF479AE226A00F03F03D2
:100C780093427FF473AE626A47F6C07303409342AF
:100C88007FF46CAEA26A00F4403393427FF466AE00
:100C9800E36A00F07060C01A18BF0120A0E600BF28
:100CA800134908B58B6803F00C03042B03D0082BF9
:100CB80003D0104808BD104808BD4A684B68496809
:100CC80013F4800314BF0C480A48C1F3881118BFF5
:100CD800002302F03F02A1FB0001FFF779FA044B61
:100CE8005B68C3F3014301335B00B0FBF3F008BD5D
:100CF800003802400024F40000127A002DE9F04187
:100D08000D46044610B90120BDE8F081444B1A682D
:100D180002F00F028A4229D321688F072ED4C80710
:100D280041D43F4B1A6802F00F02954267D32268FC
:100D380051076DD4130707D53A4A2169936823F4FC
:100D4800604343EAC1039360FFF7AAFF354B364A75
:100D58009B68C3F30313D35CD840344B1860344BFF
:100D68001868FFF7BDFB0020BDE8F081CAB21A7011
:100D78001B6803F00F039942C5D1CDE7294B11F049
:100D8800040F1EBF9A6842F4E0529A600E0742BFF1
:100D98009A6842F460429A609A68A06822F0F00269
:100DA80002439A60BBE762681E4B012A1DD11B688B
:100DB80013F4003FA7D01B4EB36823F0030313437B
:100DC800B360FFF7D7FB41F288380746B36862681B
:100DD80003F00C03B3EB820FA3D0FFF7CBFBC01BD0
:100DE8004045F3D90320BDE8F081911E01291B6815
:100DF80002D813F0007FDDE713F0020FDAE7EAB25A
:100E08001A701B6803F00F039D427FF47CAF8EE7D6
:100E18000449E0688B6823F4E05303438B6089E757
:100E2800003C024000380240C62600081800002096
:100E380004000020044B054A9B68C3F38223D35C5B
:100E4800034A1068D840704700380240D626000888
:100E580018000020044B054A9B68C3F34233D35C57
:100E6800034A1068D840704700380240D626000868
:100E780018000020F8B504460E4615461F4621689E
:100E88008A6836EA020301D00020F8BD6B1CF7D04F
:100E9800FFF770FBC01B8542F1D823685A6822F01F
:100EA800E0025A606268B2F5827F0AD1A268B2F5A0
:100EB800004F02D0B2F5806F03D11A6822F04002C9
:100EC8001A60A26AB2F5005F07D11A6822F40052CC
:100ED8001A601A6842F400521A60012384F85130EB
:100EE800002384F850300320F8BD000073B5134682
:100EF800134A144E15684268B5FBF6F64FF47A7536
:100F08007543B2F5827F044601950DD10A468021CA
:100F1800FFF7B0FF10B9002002B070BD636D43F059
:100F2800200363650320F7E7019B002BF3D0019BA7
:100F3800013B019323689B681B06F5D4EBE700BFD0
:100F48001800002000366E01704710B504460028CE
:100F580036D00023836290F8513003F0FF021BB9AA
:100F680080F85020FFF7F0FF2168A068A2690223EB
:100F780084F851300B6823F040030B606368034327
:100F8800E06803432069034360690343E06903435E
:100F9800206A0343A06A034302F4007003430B6012
:100FA800120C636A02F004021A434A60CB6923F404
:100FB8000063CB6100200123606584F8513010BDC7
:100FC800012010BD2DE9F7431E4690F850300A9FC6
:100FD800012B04460D46914600F0E280012380F87B
:100FE8005030FFF7C7FA94F851306168DBB2012B33
:100FF80080460AD0B1F5827F40F0D080A0680028F2
:1010080040F0CC80042B40F0C980002D00F0C48053
:10101800B9F1000F00F0C080002E00F0BD8094F8F8
:101028005130C4F83890042B1CBF052384F8513084
:1010380000236365236463642368E687E6861A6889
:10104800A687500658BF1A68256358BF42F0400269
:10105800A68658BF1A60E268B2F5006F58D109B188
:10106800012E07D135F8022BDA60E38E2563013BA8
:101078009BB2E3860125E38E9BB2ABB9E38F9BB2AB
:1010880093B9424639462046FFF730FF002840F022
:101098008180A368002B32D123680190DA6801921D
:1010A8009B680193019B2AE02268936899070DD5F4
:1010B800E38E9BB253B14DB1236B33F8021BD16061
:1010C8002363E38E013B9BB2E38600259368DB072D
:1010D8000CD5E38F9BB24BB1A36BD26823F8022BDC
:1010E800A363E38F013B9BB2E3870125FFF742FA35
:1010F800A0EB08008742BED87E1CBCD00320012389
:1011080084F85130002384F8503003B0BDE8F083F0
:1011180009B1012E08D12A781A73236B013323638E
:10112800E38E013B9BB2E3860125E38E9BB21BB99C
:10113800E38F9BB2002BA4D02268936898070ED542
:10114800E38E9BB25BB155B1236B1B781373236B92
:1011580001332363E38E013B9BB2E38600252268BB
:101168009368D9070DD5E38F9BB253B1A36BD268AF
:101178001A70A36B0133A363E38F013B9BB2E38730
:101188000125FFF7F7F9A0EB08008742CDD87B1CB3
:10119800CBD0B3E7202363650120B0E70220AEE798
:1011A8000220B2E790F851007047000038B5036894
:1011B800C1681A69044622F440520A431A61256933
:1011C800A268D968C0692A43656921F416412A438F
:1011D80021F00C0102430A43DA605A69A16922F43A
:1011E80040720A43B0F5004F5A61254A29D193420B
:1011F80003D002F58062934220D1FFF72BFE62688C
:10120800256892184FF000034FF019015B41A0FBCD
:101218000101FEF7DDFF6421B0FBF1F401FB1403CB
:10122800DB003233B3FBF1F303F007025B0002EBA0
:10123800041203F4F8731344AB6038BDFFF7FAFDEA
:10124800DDE7934202D00F4A934216D1FFF702FE20
:101258006368256819219A00A0FB01019B0FFEF71E
:10126800B7FF6422B0FBF2F102FB11031B0132331A
:10127800B3FBF2F303EB0113DEE7FFF7DBFDE7E770
:10128800001001400014014010B5044640B390F826
:10129800393003F0FF021BB980F8382001F030F92B
:1012A8002268242384F83930D36823F40053D360A8
:1012B8002046FFF77BFF23681A6922F490421A61DF
:1012C8005A6922F02A025A61DA6842F40052DA6056
:1012D80000202023E06384F8393084F83A3010BDC8
:1012E800012010BD70B58AB000248DF804008DF877
:1012F80005108DF806202146182204A81E460294DF
:10130800CDF80B4001F08DF93F23ADF810308A235A
:10131800ADF8123001AB06930323079302AD072300
:10132800214604A80895099300F0DEFAA04215DBCF
:101338009DF8080080B9029A9DF80B30C2F30F227D
:1013480032809DF80C2043EA02230E9A1380039BF7
:101358000F9AC3F30F2313800AB070BDFF20FBE779
:1013680070B592B09DF85C509DF864402E191A2E05
:101378004FDC8DF82000ADF82110ADF823208DF852
:1013880025302A469DF8583018998DF826300AA835
:101398008DF8275001F03AF905F1080312AA52FA1C
:1013A80083F3093508AEEDB203F8284C22461A99A2
:1013B80070192C4401F02AF9E4B212AB2344BDF8A9
:1013C8006C2023F8282CA31C12AA52FA83F3BDF828
:1013D800702023F8282C0021182202A801F021F9F6
:1013E8003F23ADF808308323ADF80A3004340DF1FB
:1013F80007030693E4B20123002102A8049605948A
:10140800079300F071FA002805DB9DF8070012B079
:1014180070BD4220FBE7FF20F9E700B589B018222C
:10142800002102A801F0FDF83F23ADF8083040F292
:101438000113ADF80A300DF10703069300210123CB
:1014480002A8079300F050FA0028ACBF9DF80700E7
:10145800FF2009B05DF804FBF0B58DB001280CAE93
:101468000CBF0224102406F82C0D17460DF10500B8
:1014780022461D4601F0CAF80CAB234403F82B7C26
:101488000CAB1A19033402F82A5C002518222946E5
:101498000DEB0200ADF800508DF8025001F0C1F8D4
:1014A8003F23ADF818304FF48173ADF81A30294650
:1014B800032306A808960994CDF828D00B9300F0CA
:1014C80013FAA84209DB9DF8000020B9009B129A84
:1014D800C3F30F2313800DB0F0BDFF20FBE770B5F9
:1014E80001298EB00CBF022410241646ADF81C004A
:1014F80022468DF81E100DF11F0031461D4601F0E1
:1015080085F80EAB1A19134602F8195C9DF84820A5
:1015180003F8182C0EAB23449DF84C2003F8172C25
:101528000EAB23449DF8502003F8162C0EAB234431
:101538009DF8542003F8152C0EAB234400259DF884
:10154800582003F8142C2946182201A8ADF8005099
:101558008DF8025001F065F83F23ADF804304FF4E0
:101568008273ADF8063007AB039309340323294689
:1015780001A80494CDF814D0069300F0B5F9A84258
:1015880009DB9DF8000020B9009B179AC3F30F23CD
:1015980013800EB070BDFF20FBE7F0B5012AA9B09B
:1015A8000CBF02241024ADF82000ADF822108DF8ED
:1015B8002420194622460DF125009DF8BC5001F063
:1015C80025F828AB23449DF8B82003F87B2CE01DB0
:1015D80028AB23442C187B2C08AE03F87A5C54DC27
:1015E8002A463099304401F011F8E4B228AB23447C
:1015F8009DF8C42003F8802C631C28AA52FA83F3B0
:101608009DF8C82003F8802CA31C28AA52FA83F35B
:101618009DF8CC2003F8802CE31C28AA52FA83F307
:101628009DF8D02003F8802C231D28AA52FA83F3B2
:1016380000259DF8D42003F8802C2946182202A8FA
:10164800ADF804508DF8065000F0EBFF3F23ADF8DD
:101658000830053440F20513ADF80A3001AF032312
:10166800E4B2294602A8049605940697079300F069
:101678003BF9A8420BDB9DF8040020B9019B369A80
:10168800C3F30F23138029B0F0BD4220FBE7FF20EE
:10169800F9E710B57A2BA8B01C462DDCADF8200070
:1016A800ADF822108DF824202A998DF825301A4695
:1016B8000DF1260000F0AAFF1822002102A800F070
:1016C800B0FF3F23ADF808304FF48373ADF80A300C
:1016D80008AB049306340DF107030693E4B2012323
:1016E800002102A80594079300F0FEF8002805DB06
:1016F8009DF8070028B010BD4220FBE7FF20F9E75E
:1017080000B589B01822ADF80400002102A800F045
:1017180088FF3F23ADF8083040F22713ADF80A30B0
:1017280001AB0493022305930DF1030306930021F3
:10173800012302A8079300F0D7F80028ACBF9DF852
:101748000300FF2009B05DF804FB10B50C467E2CA1
:10175800A8B0114627DC22468DF820000DF12200A2
:101768008DF8214000F052FF1822002102A800F055
:1017780058FF3F23ADF808300C23ADF80A3008AB0A
:10178800049302340DF107030693E4B20123002108
:1017980002A80594079300F0A7F8002805DB9DF838
:1017A800070028B010BD4220FBE7FF20F9E700B58D
:1017B80089B01822002102A800F033FF0323ADF8F6
:1017C8000830ADF80A300DF1070306930021012314
:1017D80002A8079300F088F80028ACBF9DF807001E
:1017E800FF2009B05DF804FBF0B591B008AD2024E6
:1017F80006460F4622460021284600F012FF1F2EFB
:101808003246394628BF1F220DF121008DF820608D
:1018180000F0FCFE1822002102A800F002FF0823B5
:10182800ADF808300923ADF80A300DF10703069327
:101838000021012302A804950594079300F054F8A9
:101848000028ACBF9DF80700FF2011B0F0BD0000D4
:1018580037B5084D0446204600F059F908B103B0E1
:1018680030BD01A9204600F091F90199284600F001
:1018780058F9F0E72C04002070B508B10F4BD86177
:1018880000F06EFB0E480F4E0D4D00F03DF90E486E
:1018980000F03AF90024311928468C3400F04DF94B
:1018A800B4F52F7FF7D1054C22680AB10020904784
:1018B800A36813B1BDE87040184770BD3800002018
:1018C80024040020580000202C040020054B026846
:1018D8001A60C268DA6002691A6182699A6182686C
:1018E8009A607047380000202DE9F043A5B046887B
:1018F800B0F80080594FDFF86C910023044602A825
:101908000D46019300F000F9384600F051F901281E
:1019180053DD63882288277BA1688DF81370C3F391
:10192800090343EA822301228DF8102005A83A46CC
:10193800ADF8113000F06AFE494B1B6913B1391D2F
:1019480004A89847002D78D1C6F3090545EA8825EB
:10195800444E424FADB2FEF70DFE8046FEF70AFE3A
:10196800A0EB0800B0F57A7F4AD8304600F0CFF8EF
:101978000028F3D101A9304600F0F6F801990B7A56
:10198800042B09D1487A91F888300F28A3F1030273
:101998002CD01BD80E2852D0384600F0B8F80028B2
:1019A80058D0304600F0B3F8002853D00199384693
:1019B80000F0C3F800230193CDE704A9484600F0DE
:1019C800D3F80499384600F0B8F89DE7102817D0E6
:1019D8003E28E1D1C87A62689042DDD11A1F636956
:1019E8009A4228BF1A4662610C311CE0B1F80D30EA
:1019F800AB4205D163680F2B0FD0CB7A002BCBD02D
:101A0800019911B1154800F08CF802A8FFF720FFE2
:101A18004FF0FF3025B0BDE8F08363699A4228BFD4
:101A28001A4662610B31206900F0F0FD0B480199FC
:101A380000F077F802A8FFF70BFF0020EAE78A8991
:101A4800AA42DDD19A1F63699A4228BF1A46626189
:101A58000E31E8E7019902A8AAE700BF2404002094
:101A6800380000202C04002073B500230B4C0C4DCB
:101A78000C4E0193204600F04AF808B102B070BD40
:101A880001A9204600F070F8EB6913B101980830FD
:101A980098470199304600F050F8EBE72C040020F5
:101AA800380000202404002037B500231348019390
:101AB80000F02DF8D8B901A9104800F055F8104BDE
:101AC800DB6893B10198802108309847C5B2019925
:101AD80085B10B7A81F88850042B0BD18B7AE81EDC
:101AE800834207D1074800F028F8002000E00120D1
:101AF80003B030BD014800F014F8F6E724040020D4
:101B0800380000202C040020006040607047EFF38C
:101B1800108272B603681B1A5842584182F3108823
:101B28007047EFF3108372B602680A60486001607C
:101B38000A68516083F310887047EFF3108372B618
:101B480042684A60086041604A68116083F31088FF
:101B58007047EFF3108272B690E80A0019600168C6
:101B68004B6082F31088704738B50C46EFF3108548
:101B780072B603680B600068FFF7EBFF226800236A
:101B880013602268536085F3108838BD38B50C4659
:101B9800EFF3108572B643680B604068FFF7D9FF12
:101BA8002268002313602268536085F3108838BDCB
:101BB800EFF3108172B602680023824203D181F3E9
:101BC80010881846704701331268F6E730B50021CF
:101BD80087B01D48FFF750FEFFF7E9FD6420FEF7C8
:101BE800CFFC02238DF811300323062104AA012516
:101BF8008DF812300424052300208DF814308DF858
:101C080015108DF810508DF81340FFF79EFDFFF763
:101C180004FC0DF10E03019303AB009307220DF1B1
:101C28000A0300212846FFF75DFB084BBDF80C109E
:101C3800009300222346BDF80A00FFF72AFD00F0B2
:101C48001DFA07B030BD00BFED2200085F2600086E
:101C580000B5114A8DB01068516809AB03C31189EA
:101C680019800021927A9A700846FFF7BDFD09AAEB
:101C7800002302920B220693059304930393019287
:101C880000931A4619461846FFF76AFBFFF7ECFE61
:101C98000DB05DF804FB00BF5426000870B514228F
:101CA8008AB00DEB0200002100F0BBFC0024264B9B
:101CB80001941A6B254D42F004021A631A6B02F064
:101CC80004020192019A02941A6B42F080021A638C
:101CD8001A6B02F080020292029A03941A6B42F085
:101CE80001021A631A6B02F001020392039A049428
:101CF8001A6B42F002021A631B6B03F002032246BE
:101D0800049328464FF48171049B0126FEF71CFEBC
:101D18000F4B069305A9284605960794FEF7CAFCBB
:101D28004FF4817305A928460593069607940894ED
:101D3800FEF7C0FC224621460620FEF747FC062097
:101D4800FEF778FC0AB070BD00380240000002407F
:101D58000000111070B586B00024164B00941A6B61
:101D6800154D42F001021A631B6B039403F0010343
:101D780000930126009B114B029301A92846019666
:101D8800FEF798FC4FF4807301A928460193029648
:101D980003940494FEF78EFC022301A928460193BC
:101DA800029603940494FEF785FC00F01DFB06B030
:101DB80070BD00BF00380240000002400000111052
:101DC80010B5084C01212046FEF742FD20460221AD
:101DD800FEF73EFD20464FF48071FEF739FD0020E6
:101DE80010BD00BF0000024010B50A4C00224FF49D
:101DF80080712046FEF7A8FD0520FEF7C1FB0122F1
:101E08004FF480712046FEF79FFD0520FEF7B8FBD2
:101E1800002010BD00000240F0B587B00024FF2369
:101E28008DF8063022460B2307460E461D488DF8CE
:101E3800083002218DF809408DF80A408DF80B40D2
:101E48008DF80C40FEF780FD052204A902A800F0D9
:101E580097FA9DF81030022B21D19DF814509DF867
:101E6800133053EA052507D0AE4228BF2E46E5B207
:101E7800B54204F1010407D3012202210948FEF703
:101E880063FD284607B0F0BD01220DF107010DF1F1
:101E9800060000F075FA9DF807307B55E7E7254600
:101EA800EAE700BF000002402DE9F04385B00A23AD
:101EB8008DF80030002380460D468DF801308DF8EE
:101EC80002308DF803308DF80430FEF753FB1A4EBC
:101ED800DFF868900746002202213046FEF734FDFD
:101EE800052202A9684600F04BFA9DF80830022B3B
:101EF80019D19DF80930AB4218D32A4649464046C5
:101F080000F03EFA0024012202213046FEF71CFDB3
:101F1800FEF730FBC01B0F280BD8002CDBD1204666
:101F280005B0BDE8F0834FF0FF34ECE76FF0010433
:101F3800E9E76FF00204F2E7000002401403002012
:101F480010B5064C01212046FEF7F8FC012804D103
:101F58000020FFF7A9FD0028F4D010BD00000240C2
:101F680010B588B0114B0193114B0293114B059397
:101F7800114B0493114C124B039301A8114B079377
:101F8800FFF7A4FC4FF0C0612046FEF77DFB0E4A28
:101F980000212046FEF772FB002211460620FEF7BC
:101FA80015FB0620FEF746FB08B010BD5D1D0008B6
:101FB800C91D0008B11E0008211E000834040020B5
:101FC800F11D0008B1230008491F000830B595B07D
:101FD8003022002108A800F024FB0021142203A8C5
:101FE80000F01FFB00241B4B01941A6C42F0805236
:101FF8001A641B6C03F080530193019B164B0294E7
:102008001A6842F440421A601B680F9403F4404374
:102018000293029B01230B9310230C9310934FF40C
:10202800A8730225119308A8042312931393089503
:102038000E95FEF78FFC0F23039329464FF4805328
:1020480003A80495059406930794FEF757FE15B068
:1020580030BD00BF003802400070004008B5FEF7F0
:1020680063FAFFF7B3FFFFF719FE00F02DFAFFF749
:10207800ADFDFFF7EDFDFCE7704700002DE9F047E7
:102088008CB0DFF81C91DFF81C81CDF80090072395
:1020980001223849DFF810A1022000240225FFF7A9
:1020A800DBF910260427CDF80080072301223249E6
:1020B8000220FFF7D1F92B462946B8F80000CDF8E1
:1020C80014A0049403960297019400952B4AFFF7F5
:1020D80006FA2B4B059329462B46B8F800000494C2
:1020E8000396029701940095264AFFF7F8F90E2304
:1020F8008DF82830FF238DF8293042F22F73ADF880
:102108002A30214B08930AAB012202930723BAF81D
:102118000010049201930093B8F800000794069603
:1021280005940394194B8DF82C408DF82D408DF8AB
:102138002E40FFF732FA164B059329462B46B9F87D
:10214800000004940396029701940095114AFFF742
:10215800C6F9114B0593B9F8000004940396029749
:10216800019400952B460D4A2946FFF7B8F90CB0A3
:10217800BDE8F08774260008A62600089426000803
:10218800460400208426000844040020A4260008F1
:1021980048040020642600083E040020B6260008F3
:1021A8003C04002040040020420400201FB5074AD8
:1021B80004AB118823F8020D054A10880093002209
:1021C8000223FFF766FA05B05DF804FB4804002017
:1021D8003C0400201FB5074A04AB118823F8020D00
:1021E800054A1088009300220223FFF752FA05B02F
:1021F8005DF804FB3E0400203C0400201FB5074A9C
:1022080004AB118823F8020D054A108800930022B8
:102218000223FFF73EFA05B05DF804FB46040020F0
:10222800400400201FB5074A04AB118823F8020DAB
:10223800054A1088009300220223FFF72AFA05B006
:102248005DF804FB42040020400400201C4B1B885E
:102258000133984210B5044606D11A4B186802306B
:10226800186080B2FFF7A2FF174B1B8801339C420E
:1022780006D1164B18680538186080B2FFF7AAFF18
:10228800134B1B8801339C4206D1124B1868013846
:10229800186080B2FFF7C6FF0F4B1B8801339C42C2
:1022A80006D10E4B18680230186080B2FFF7A6FFFF
:1022B8000B4B188818B1BDE81040FFF721BA10BDC4
:1022C80048040020080000203E04002014000020DC
:1022D8004204002010000020460400200C000020CA
:1022E800180400200378042B19D143783E2B02D020
:1022F800FF2B0AD07047C378012B10D10849B0F8DA
:1023080005200B60074B1A807047B0F8032040F691
:1023180014439A4203D1B0F80700FFF797BF7047FC
:10232800140400201804002082B00C4B00210091F6
:102338005A6C42F480425A645A6C02F48042009209
:10234800009A01911A6C42F080521A641B6C03F0D7
:1023580080530193019B02B0704700BF00380240D0
:102368007047FEE7FEE7FEE7FEE7704770477047F5
:10237800FEF7F4B80148FEF78DB900BF3404002019
:1023880007B54FF48053009313460A4601460548A3
:10239800FEF718FE002814BF6FF00500002003B0F8
:1023A8005DF804FB4C040020FEF7E4B80D4A4FF436
:1023B800827C08B54FF4007180E804100022826026
:1023C800C2600261426181610262182142628262D6
:1023D8000A22C161C262FEF7B8FD003018BF0120B1
:1023E80008BD00BF003001402DE9F041294A2A4DBF
:1023F8002A4B2B601368591C88B011601BB1002050
:1024080008B0BDE8F0812846FEF7CCFE0446002857
:10241800F5D1234B00905A6C42F480525A645A6C9E
:1024280002F480520092009A01901A6B42F0010265
:102438001A631A6B02F001020192019A02901A6B58
:1024480042F002021A631B6B059003F00203029329
:10245800029B1448C0234FF002080327052603A94E
:102468000393CDF8108006970796FEF723F9082303
:102478000D48039303A9CDF8108005940697079695
:10248800FEF718F92846FFF791FF0028B7D06FF03C
:102498000700B5E71C0400204C0400200030014070
:1024A800003802400000024000040240054BD3F807
:1024B800882042F47002C3F888204FF000629A60C6
:1024C800704700BF00ED00E008B50B480B4B4FF418
:1024D800E13E80E808400C2200238360C36003616A
:1024E80042618361C361FEF7CFFE18B1BDE80840C1
:1024F800FFF7C2BD08BD00BFA4040020004400408F
:1025080010B5044688B01422002103A800F089F809
:102518002268154B9A4224D103F5FA330021019120
:102528001A6C124842F400321A641A6C02F400322F
:102538000192019A02911A6B42F001021A631B6B15
:1025480003F001030293029B0C23039302230493D9
:10255800012305930323069303A907230793FEF793
:10256800A9F808B010BD00BF0044004000000240B8
:10257800DFF834D0002103E00C4B5B5843500431A2
:102588000B480C4B42189A42F6D30B4A02E0002340
:1025980042F8043B094B9A42F9D3FFF787FF00F052
:1025A80011F8FFF75BFD704700000220F0260008D5
:1025B800000000201C0000201C000020E404002073
:1025C800FEE7000070B50D4E0D4CA41BA4100025AD
:1025D800A54209D10B4E0C4C00F02CF8A41BA410FA
:1025E8000025A54205D170BD56F82530984701351C
:1025F800EEE756F8253098470135F2E7E826000857
:10260800E8260008E8260008EC26000810B5431E56
:102618000A44914200D110BD11F8014B03F8014F53
:10262800F7E702440346934200D1704703F8011BC1
:10263800F9E70000F8B500BFF8BC08BC9E46704733
:0C264800F8B500BFF8BC08BC9E46704707
:10265400094E55434C454F2D424C45524F4E420076
:10266400669A0C200008969EE2119EB1E1F273D99D
:10267400669A0C200008969EE2119EB1E0F273D98E
:102684009225C1FA866946A185B876607285A783CA
:102694009225C1FA866946A185B876607185A783BB
:1026A40092119225C1FA866946A185B87660708533
:1026B400A783669A0C200008969EE2119EB1E2F26E
:1026C40073D90000000000000000010203040607A3
:0C26D400080900000000010203040000DF
:0826E00028DBFF7F0100000070
:0426E800BD01000828
:0426EC009901000848
:1026F0000100000010000000550000005000000024
:0C270000140000005A0000000024F40047
:040000050800257951
:00000001FF
